{
  "_format": "hh3-artifact-1",
  "contractName": "DreamSoul",
  "sourceName": "contracts/DreamSoul.sol",
  "abi": [
    {
      "inputs": [],
      "stateMutability": "nonpayable",
      "type": "constructor"
    },
    {
      "inputs": [
        {
          "internalType": "address",
          "name": "sender",
          "type": "address"
        },
        {
          "internalType": "uint256",
          "name": "tokenId",
          "type": "uint256"
        },
        {
          "internalType": "address",
          "name": "owner",
          "type": "address"
        }
      ],
      "name": "ERC721IncorrectOwner",
      "type": "error"
    },
    {
      "inputs": [
        {
          "internalType": "address",
          "name": "operator",
          "type": "address"
        },
        {
          "internalType": "uint256",
          "name": "tokenId",
          "type": "uint256"
        }
      ],
      "name": "ERC721InsufficientApproval",
      "type": "error"
    },
    {
      "inputs": [
        {
          "internalType": "address",
          "name": "approver",
          "type": "address"
        }
      ],
      "name": "ERC721InvalidApprover",
      "type": "error"
    },
    {
      "inputs": [
        {
          "internalType": "address",
          "name": "operator",
          "type": "address"
        }
      ],
      "name": "ERC721InvalidOperator",
      "type": "error"
    },
    {
      "inputs": [
        {
          "internalType": "address",
          "name": "owner",
          "type": "address"
        }
      ],
      "name": "ERC721InvalidOwner",
      "type": "error"
    },
    {
      "inputs": [
        {
          "internalType": "address",
          "name": "receiver",
          "type": "address"
        }
      ],
      "name": "ERC721InvalidReceiver",
      "type": "error"
    },
    {
      "inputs": [
        {
          "internalType": "address",
          "name": "sender",
          "type": "address"
        }
      ],
      "name": "ERC721InvalidSender",
      "type": "error"
    },
    {
      "inputs": [
        {
          "internalType": "uint256",
          "name": "tokenId",
          "type": "uint256"
        }
      ],
      "name": "ERC721NonexistentToken",
      "type": "error"
    },
    {
      "inputs": [
        {
          "internalType": "address",
          "name": "owner",
          "type": "address"
        }
      ],
      "name": "OwnableInvalidOwner",
      "type": "error"
    },
    {
      "inputs": [
        {
          "internalType": "address",
          "name": "account",
          "type": "address"
        }
      ],
      "name": "OwnableUnauthorizedAccount",
      "type": "error"
    },
    {
      "anonymous": false,
      "inputs": [
        {
          "indexed": true,
          "internalType": "address",
          "name": "owner",
          "type": "address"
        },
        {
          "indexed": true,
          "internalType": "address",
          "name": "approved",
          "type": "address"
        },
        {
          "indexed": true,
          "internalType": "uint256",
          "name": "tokenId",
          "type": "uint256"
        }
      ],
      "name": "Approval",
      "type": "event"
    },
    {
      "anonymous": false,
      "inputs": [
        {
          "indexed": true,
          "internalType": "address",
          "name": "owner",
          "type": "address"
        },
        {
          "indexed": true,
          "internalType": "address",
          "name": "operator",
          "type": "address"
        },
        {
          "indexed": false,
          "internalType": "bool",
          "name": "approved",
          "type": "bool"
        }
      ],
      "name": "ApprovalForAll",
      "type": "event"
    },
    {
      "anonymous": false,
      "inputs": [
        {
          "indexed": false,
          "internalType": "uint256",
          "name": "_fromTokenId",
          "type": "uint256"
        },
        {
          "indexed": false,
          "internalType": "uint256",
          "name": "_toTokenId",
          "type": "uint256"
        }
      ],
      "name": "BatchMetadataUpdate",
      "type": "event"
    },
    {
      "anonymous": false,
      "inputs": [
        {
          "indexed": true,
          "internalType": "address",
          "name": "to",
          "type": "address"
        },
        {
          "indexed": true,
          "internalType": "uint256",
          "name": "tokenId",
          "type": "uint256"
        },
        {
          "indexed": false,
          "internalType": "string",
          "name": "uri",
          "type": "string"
        }
      ],
      "name": "DreamMinted",
      "type": "event"
    },
    {
      "anonymous": false,
      "inputs": [
        {
          "indexed": false,
          "internalType": "uint256",
          "name": "_tokenId",
          "type": "uint256"
        }
      ],
      "name": "MetadataUpdate",
      "type": "event"
    },
    {
      "anonymous": false,
      "inputs": [
        {
          "indexed": true,
          "internalType": "address",
          "name": "previousOwner",
          "type": "address"
        },
        {
          "indexed": true,
          "internalType": "address",
          "name": "newOwner",
          "type": "address"
        }
      ],
      "name": "OwnershipTransferred",
      "type": "event"
    },
    {
      "anonymous": false,
      "inputs": [
        {
          "indexed": true,
          "internalType": "address",
          "name": "from",
          "type": "address"
        },
        {
          "indexed": true,
          "internalType": "address",
          "name": "to",
          "type": "address"
        },
        {
          "indexed": true,
          "internalType": "uint256",
          "name": "tokenId",
          "type": "uint256"
        }
      ],
      "name": "Transfer",
      "type": "event"
    },
    {
      "inputs": [
        {
          "internalType": "address",
          "name": "to",
          "type": "address"
        },
        {
          "internalType": "uint256",
          "name": "tokenId",
          "type": "uint256"
        }
      ],
      "name": "approve",
      "outputs": [],
      "stateMutability": "nonpayable",
      "type": "function"
    },
    {
      "inputs": [
        {
          "internalType": "address",
          "name": "owner",
          "type": "address"
        }
      ],
      "name": "balanceOf",
      "outputs": [
        {
          "internalType": "uint256",
          "name": "",
          "type": "uint256"
        }
      ],
      "stateMutability": "view",
      "type": "function"
    },
    {
      "inputs": [
        {
          "internalType": "uint256",
          "name": "tokenId",
          "type": "uint256"
        }
      ],
      "name": "getApproved",
      "outputs": [
        {
          "internalType": "address",
          "name": "",
          "type": "address"
        }
      ],
      "stateMutability": "view",
      "type": "function"
    },
    {
      "inputs": [
        {
          "internalType": "address",
          "name": "owner",
          "type": "address"
        },
        {
          "internalType": "address",
          "name": "operator",
          "type": "address"
        }
      ],
      "name": "isApprovedForAll",
      "outputs": [
        {
          "internalType": "bool",
          "name": "",
          "type": "bool"
        }
      ],
      "stateMutability": "view",
      "type": "function"
    },
    {
      "inputs": [
        {
          "internalType": "address",
          "name": "to",
          "type": "address"
        },
        {
          "internalType": "string",
          "name": "uri",
          "type": "string"
        }
      ],
      "name": "mintDream",
      "outputs": [
        {
          "internalType": "uint256",
          "name": "",
          "type": "uint256"
        }
      ],
      "stateMutability": "nonpayable",
      "type": "function"
    },
    {
      "inputs": [],
      "name": "name",
      "outputs": [
        {
          "internalType": "string",
          "name": "",
          "type": "string"
        }
      ],
      "stateMutability": "view",
      "type": "function"
    },
    {
      "inputs": [],
      "name": "owner",
      "outputs": [
        {
          "internalType": "address",
          "name": "",
          "type": "address"
        }
      ],
      "stateMutability": "view",
      "type": "function"
    },
    {
      "inputs": [
        {
          "internalType": "uint256",
          "name": "tokenId",
          "type": "uint256"
        }
      ],
      "name": "ownerOf",
      "outputs": [
        {
          "internalType": "address",
          "name": "",
          "type": "address"
        }
      ],
      "stateMutability": "view",
      "type": "function"
    },
    {
      "inputs": [],
      "name": "renounceOwnership",
      "outputs": [],
      "stateMutability": "nonpayable",
      "type": "function"
    },
    {
      "inputs": [
        {
          "internalType": "address",
          "name": "from",
          "type": "address"
        },
        {
          "internalType": "address",
          "name": "to",
          "type": "address"
        },
        {
          "internalType": "uint256",
          "name": "tokenId",
          "type": "uint256"
        }
      ],
      "name": "safeTransferFrom",
      "outputs": [],
      "stateMutability": "nonpayable",
      "type": "function"
    },
    {
      "inputs": [
        {
          "internalType": "address",
          "name": "from",
          "type": "address"
        },
        {
          "internalType": "address",
          "name": "to",
          "type": "address"
        },
        {
          "internalType": "uint256",
          "name": "tokenId",
          "type": "uint256"
        },
        {
          "internalType": "bytes",
          "name": "data",
          "type": "bytes"
        }
      ],
      "name": "safeTransferFrom",
      "outputs": [],
      "stateMutability": "nonpayable",
      "type": "function"
    },
    {
      "inputs": [
        {
          "internalType": "address",
          "name": "operator",
          "type": "address"
        },
        {
          "internalType": "bool",
          "name": "approved",
          "type": "bool"
        }
      ],
      "name": "setApprovalForAll",
      "outputs": [],
      "stateMutability": "nonpayable",
      "type": "function"
    },
    {
      "inputs": [
        {
          "internalType": "bytes4",
          "name": "interfaceId",
          "type": "bytes4"
        }
      ],
      "name": "supportsInterface",
      "outputs": [
        {
          "internalType": "bool",
          "name": "",
          "type": "bool"
        }
      ],
      "stateMutability": "view",
      "type": "function"
    },
    {
      "inputs": [],
      "name": "symbol",
      "outputs": [
        {
          "internalType": "string",
          "name": "",
          "type": "string"
        }
      ],
      "stateMutability": "view",
      "type": "function"
    },
    {
      "inputs": [
        {
          "internalType": "uint256",
          "name": "tokenId",
          "type": "uint256"
        }
      ],
      "name": "tokenURI",
      "outputs": [
        {
          "internalType": "string",
          "name": "",
          "type": "string"
        }
      ],
      "stateMutability": "view",
      "type": "function"
    },
    {
      "inputs": [
        {
          "internalType": "address",
          "name": "from",
          "type": "address"
        },
        {
          "internalType": "address",
          "name": "to",
          "type": "address"
        },
        {
          "internalType": "uint256",
          "name": "tokenId",
          "type": "uint256"
        }
      ],
      "name": "transferFrom",
      "outputs": [],
      "stateMutability": "nonpayable",
      "type": "function"
    },
    {
      "inputs": [
        {
          "internalType": "address",
          "name": "newOwner",
          "type": "address"
        }
      ],
      "name": "transferOwnership",
      "outputs": [],
      "stateMutability": "nonpayable",
      "type": "function"
    }
  ],
  "bytecode": "0x608060405234801562000010575f80fd5b50336040518060400160405280600a81526020017f447265616d20536f756c000000000000000000000000000000000000000000008152506040518060400160405280600581526020017f445245414d000000000000000000000000000000000000000000000000000000815250815f90816200008e919062000455565b508060019081620000a0919062000455565b5050505f73ffffffffffffffffffffffffffffffffffffffff168173ffffffffffffffffffffffffffffffffffffffff160362000116575f6040517f1e4fbdf70000000000000000000000000000000000000000000000000000000081526004016200010d91906200057c565b60405180910390fd5b62000127816200012e60201b60201c565b5062000597565b5f60075f9054906101000a900473ffffffffffffffffffffffffffffffffffffffff1690508160075f6101000a81548173ffffffffffffffffffffffffffffffffffffffff021916908373ffffffffffffffffffffffffffffffffffffffff1602179055508173ffffffffffffffffffffffffffffffffffffffff168173ffffffffffffffffffffffffffffffffffffffff167f8be0079c531659141344cd1fd0a4f28419497f9722a3daafe3b4186f6b6457e060405160405180910390a35050565b5f81519050919050565b7f4e487b71000000000000000000000000000000000000000000000000000000005f52604160045260245ffd5b7f4e487b71000000000000000000000000000000000000000000000000000000005f52602260045260245ffd5b5f60028204905060018216806200026d57607f821691505b60208210810362000283576200028262000228565b5b50919050565b5f819050815f5260205f209050919050565b5f6020601f8301049050919050565b5f82821b905092915050565b5f60088302620002e77fffffffffffffffffffffffffffffffffffffffffffffffffffffffffffffffff82620002aa565b620002f38683620002aa565b95508019841693508086168417925050509392505050565b5f819050919050565b5f819050919050565b5f6200033d6200033762000331846200030b565b62000314565b6200030b565b9050919050565b5f819050919050565b62000358836200031d565b62000370620003678262000344565b848454620002b6565b825550505050565b5f90565b6200038662000378565b620003938184846200034d565b505050565b5b81811015620003ba57620003ae5f826200037c565b60018101905062000399565b5050565b601f8211156200040957620003d38162000289565b620003de846200029b565b81016020851015620003ee578190505b62000406620003fd856200029b565b83018262000398565b50505b505050565b5f82821c905092915050565b5f6200042b5f19846008026200040e565b1980831691505092915050565b5f6200044583836200041a565b9150826002028217905092915050565b6200046082620001f1565b67ffffffffffffffff8111156200047c576200047b620001fb565b5b62000488825462000255565b62000495828285620003be565b5f60209050601f831160018114620004cb575f8415620004b6578287015190505b620004c2858262000438565b86555062000531565b601f198416620004db8662000289565b5f5b828110156200050457848901518255600182019150602085019450602081019050620004dd565b8683101562000524578489015162000520601f8916826200041a565b8355505b6001600288020188555050505b505050505050565b5f73ffffffffffffffffffffffffffffffffffffffff82169050919050565b5f620005648262000539565b9050919050565b620005768162000558565b82525050565b5f602082019050620005915f8301846200056b565b92915050565b61267280620005a55f395ff3fe608060405234801561000f575f80fd5b5060043610610109575f3560e01c8063715018a6116100a0578063a22cb4651161006f578063a22cb465146102b5578063b88d4fde146102d1578063c87b56dd146102ed578063e985e9c51461031d578063f2fde38b1461034d57610109565b8063715018a61461023f5780638da5cb5b146102495780638ea6a24a1461026757806395d89b411461029757610109565b806323b872dd116100dc57806323b872dd146101a757806342842e0e146101c35780636352211e146101df57806370a082311461020f57610109565b806301ffc9a71461010d57806306fdde031461013d578063081812fc1461015b578063095ea7b31461018b575b5f80fd5b61012760048036038101906101229190611b2b565b610369565b6040516101349190611b70565b60405180910390f35b6101456103c9565b6040516101529190611c13565b60405180910390f35b61017560048036038101906101709190611c66565b610458565b6040516101829190611cd0565b60405180910390f35b6101a560048036038101906101a09190611d13565b610473565b005b6101c160048036038101906101bc9190611d51565b610489565b005b6101dd60048036038101906101d89190611d51565b610588565b005b6101f960048036038101906101f49190611c66565b6105a7565b6040516102069190611cd0565b60405180910390f35b61022960048036038101906102249190611da1565b6105b8565b6040516102369190611ddb565b60405180910390f35b61024761066e565b005b610251610681565b60405161025e9190611cd0565b60405180910390f35b610281600480360381019061027c9190611f20565b6106a9565b60405161028e9190611ddb565b60405180910390f35b61029f610730565b6040516102ac9190611c13565b60405180910390f35b6102cf60048036038101906102ca9190611fa4565b6107c0565b005b6102eb60048036038101906102e69190612080565b6107d6565b005b61030760048036038101906103029190611c66565b6107fb565b6040516103149190611c13565b60405180910390f35b61033760048036038101906103329190612100565b610877565b6040516103449190611b70565b60405180910390f35b61036760048036038101906103629190611da1565b610905565b005b5f634906490660e01b7bffffffffffffffffffffffffffffffffffffffffffffffffffffffff1916827bffffffffffffffffffffffffffffffffffffffffffffffffffffffff191614806103c257506103c182610989565b5b9050919050565b60605f80546103d79061216b565b80601f01602080910402602001604051908101604052809291908181526020018280546104039061216b565b801561044e5780601f106104255761010080835404028352916020019161044e565b820191905f5260205f20905b81548152906001019060200180831161043157829003601f168201915b5050505050905090565b5f61046282610a6a565b5061046c82610af0565b9050919050565b6104858282610480610b29565b610b30565b5050565b5f73ffffffffffffffffffffffffffffffffffffffff168273ffffffffffffffffffffffffffffffffffffffff16036104f9575f6040517f64a0ae920000000000000000000000000000000000000000000000000000000081526004016104f09190611cd0565b60405180910390fd5b5f61050c8383610507610b29565b610b42565b90508373ffffffffffffffffffffffffffffffffffffffff168173ffffffffffffffffffffffffffffffffffffffff1614610582578382826040517f64283d7b0000000000000000000000000000000000000000000000000000000081526004016105799392919061219b565b60405180910390fd5b50505050565b6105a283838360405180602001604052805f8152506107d6565b505050565b5f6105b182610a6a565b9050919050565b5f8073ffffffffffffffffffffffffffffffffffffffff168273ffffffffffffffffffffffffffffffffffffffff1603610629575f6040517f89c62b640000000000000000000000000000000000000000000000000000000081526004016106209190611cd0565b60405180910390fd5b60035f8373ffffffffffffffffffffffffffffffffffffffff1673ffffffffffffffffffffffffffffffffffffffff1681526020019081526020015f20549050919050565b610676610d4d565b61067f5f610dd4565b565b5f60075f9054906101000a900473ffffffffffffffffffffffffffffffffffffffff16905090565b5f8060085f8154809291906106bd906121fd565b9190505590506106cd8482610e97565b6106d78184610eb4565b808473ffffffffffffffffffffffffffffffffffffffff167f1c95ba11821d912686730965426c2aa8d88c47ca3aad6bfe68184c0eb5da87928560405161071e9190611c13565b60405180910390a38091505092915050565b60606001805461073f9061216b565b80601f016020809104026020016040519081016040528092919081815260200182805461076b9061216b565b80156107b65780601f1061078d576101008083540402835291602001916107b6565b820191905f5260205f20905b81548152906001019060200180831161079957829003601f168201915b5050505050905090565b6107d26107cb610b29565b8383610f0e565b5050565b6107e1848484610489565b6107f56107ec610b29565b858585856110e7565b50505050565b606061080682610a6a565b505f610810611293565b90505f61081c846112a9565b90505f825103610830578092505050610872565b5f8151111561086457818160405160200161084c92919061227e565b60405160208183030381529060405292505050610872565b61086d8461134a565b925050505b919050565b5f60055f8473ffffffffffffffffffffffffffffffffffffffff1673ffffffffffffffffffffffffffffffffffffffff1681526020019081526020015f205f8373ffffffffffffffffffffffffffffffffffffffff1673ffffffffffffffffffffffffffffffffffffffff1681526020019081526020015f205f9054906101000a900460ff16905092915050565b61090d610d4d565b5f73ffffffffffffffffffffffffffffffffffffffff168173ffffffffffffffffffffffffffffffffffffffff160361097d575f6040517f1e4fbdf70000000000000000000000000000000000000000000000000000000081526004016109749190611cd0565b60405180910390fd5b61098681610dd4565b50565b5f7f80ac58cd000000000000000000000000000000000000000000000000000000007bffffffffffffffffffffffffffffffffffffffffffffffffffffffff1916827bffffffffffffffffffffffffffffffffffffffffffffffffffffffff19161480610a5357507f5b5e139f000000000000000000000000000000000000000000000000000000007bffffffffffffffffffffffffffffffffffffffffffffffffffffffff1916827bffffffffffffffffffffffffffffffffffffffffffffffffffffffff1916145b80610a635750610a62826113b0565b5b9050919050565b5f80610a7583611419565b90505f73ffffffffffffffffffffffffffffffffffffffff168173ffffffffffffffffffffffffffffffffffffffff1603610ae757826040517f7e273289000000000000000000000000000000000000000000000000000000008152600401610ade9190611ddb565b60405180910390fd5b80915050919050565b5f60045f8381526020019081526020015f205f9054906101000a900473ffffffffffffffffffffffffffffffffffffffff169050919050565b5f33905090565b610b3d8383836001611452565b505050565b5f80610b4d84611419565b90505f73ffffffffffffffffffffffffffffffffffffffff168373ffffffffffffffffffffffffffffffffffffffff1614610b8e57610b8d818486611611565b5b5f73ffffffffffffffffffffffffffffffffffffffff168173ffffffffffffffffffffffffffffffffffffffff1614610c1957610bcd5f855f80611452565b600160035f8373ffffffffffffffffffffffffffffffffffffffff1673ffffffffffffffffffffffffffffffffffffffff1681526020019081526020015f205f82825403925050819055505b5f73ffffffffffffffffffffffffffffffffffffffff168573ffffffffffffffffffffffffffffffffffffffff1614610c9857600160035f8773ffffffffffffffffffffffffffffffffffffffff1673ffffffffffffffffffffffffffffffffffffffff1681526020019081526020015f205f82825401925050819055505b8460025f8681526020019081526020015f205f6101000a81548173ffffffffffffffffffffffffffffffffffffffff021916908373ffffffffffffffffffffffffffffffffffffffff160217905550838573ffffffffffffffffffffffffffffffffffffffff168273ffffffffffffffffffffffffffffffffffffffff167fddf252ad1be2c89b69c2b068fc378daa952ba7f163c4a11628f55a4df523b3ef60405160405180910390a4809150509392505050565b610d55610b29565b73ffffffffffffffffffffffffffffffffffffffff16610d73610681565b73ffffffffffffffffffffffffffffffffffffffff1614610dd257610d96610b29565b6040517f118cdaa7000000000000000000000000000000000000000000000000000000008152600401610dc99190611cd0565b60405180910390fd5b565b5f60075f9054906101000a900473ffffffffffffffffffffffffffffffffffffffff1690508160075f6101000a81548173ffffffffffffffffffffffffffffffffffffffff021916908373ffffffffffffffffffffffffffffffffffffffff1602179055508173ffffffffffffffffffffffffffffffffffffffff168173ffffffffffffffffffffffffffffffffffffffff167f8be0079c531659141344cd1fd0a4f28419497f9722a3daafe3b4186f6b6457e060405160405180910390a35050565b610eb0828260405180602001604052805f8152506116d4565b5050565b8060065f8481526020019081526020015f209081610ed2919061243e565b507ff8e1a15aba9398e019f0b49df1a4fde98ee17ae345cb5f6b5e2c27f5033e8ce782604051610f029190611ddb565b60405180910390a15050565b5f73ffffffffffffffffffffffffffffffffffffffff168373ffffffffffffffffffffffffffffffffffffffff1603610f7e575f6040517fa9fbf51f000000000000000000000000000000000000000000000000000000008152600401610f759190611cd0565b60405180910390fd5b5f73ffffffffffffffffffffffffffffffffffffffff168273ffffffffffffffffffffffffffffffffffffffff1603610fee57816040517f5b08ba18000000000000000000000000000000000000000000000000000000008152600401610fe59190611cd0565b60405180910390fd5b8060055f8573ffffffffffffffffffffffffffffffffffffffff1673ffffffffffffffffffffffffffffffffffffffff1681526020019081526020015f205f8473ffffffffffffffffffffffffffffffffffffffff1673ffffffffffffffffffffffffffffffffffffffff1681526020019081526020015f205f6101000a81548160ff0219169083151502179055508173ffffffffffffffffffffffffffffffffffffffff168373ffffffffffffffffffffffffffffffffffffffff167f17307eab39ab6107e8899845ad3d59bd9653f200f220920489ca2b5937696c31836040516110da9190611b70565b60405180910390a3505050565b5f8373ffffffffffffffffffffffffffffffffffffffff163b111561128c578273ffffffffffffffffffffffffffffffffffffffff1663150b7a02868685856040518563ffffffff1660e01b8152600401611145949392919061255f565b6020604051808303815f875af192505050801561118057506040513d601f19601f8201168201806040525081019061117d91906125bd565b60015b611201573d805f81146111ae576040519150601f19603f3d011682016040523d82523d5f602084013e6111b3565b606091505b505f8151036111f957836040517f64a0ae920000000000000000000000000000000000000000000000000000000081526004016111f09190611cd0565b60405180910390fd5b805160208201fd5b63150b7a0260e01b7bffffffffffffffffffffffffffffffffffffffffffffffffffffffff1916817bffffffffffffffffffffffffffffffffffffffffffffffffffffffff19161461128a57836040517f64a0ae920000000000000000000000000000000000000000000000000000000081526004016112819190611cd0565b60405180910390fd5b505b5050505050565b606060405180602001604052805f815250905090565b606060065f8381526020019081526020015f2080546112c79061216b565b80601f01602080910402602001604051908101604052809291908181526020018280546112f39061216b565b801561133e5780601f106113155761010080835404028352916020019161133e565b820191905f5260205f20905b81548152906001019060200180831161132157829003601f168201915b50505050509050919050565b606061135582610a6a565b505f61135f611293565b90505f81511161137d5760405180602001604052805f8152506113a8565b80611387846116f7565b60405160200161139892919061227e565b6040516020818303038152906040525b915050919050565b5f7f01ffc9a7000000000000000000000000000000000000000000000000000000007bffffffffffffffffffffffffffffffffffffffffffffffffffffffff1916827bffffffffffffffffffffffffffffffffffffffffffffffffffffffff1916149050919050565b5f60025f8381526020019081526020015f205f9054906101000a900473ffffffffffffffffffffffffffffffffffffffff169050919050565b808061148a57505f73ffffffffffffffffffffffffffffffffffffffff168273ffffffffffffffffffffffffffffffffffffffff1614155b156115bc575f61149984610a6a565b90505f73ffffffffffffffffffffffffffffffffffffffff168373ffffffffffffffffffffffffffffffffffffffff161415801561150357508273ffffffffffffffffffffffffffffffffffffffff168173ffffffffffffffffffffffffffffffffffffffff1614155b801561151657506115148184610877565b155b1561155857826040517fa9fbf51f00000000000000000000000000000000000000000000000000000000815260040161154f9190611cd0565b60405180910390fd5b81156115ba57838573ffffffffffffffffffffffffffffffffffffffff168273ffffffffffffffffffffffffffffffffffffffff167f8c5be1e5ebec7d5bd14f71427d1e84f3dd0314c0f7b2291e5b200ac8c7c3b92560405160405180910390a45b505b8360045f8581526020019081526020015f205f6101000a81548173ffffffffffffffffffffffffffffffffffffffff021916908373ffffffffffffffffffffffffffffffffffffffff16021790555050505050565b61161c8383836117c1565b6116cf575f73ffffffffffffffffffffffffffffffffffffffff168373ffffffffffffffffffffffffffffffffffffffff160361169057806040517f7e2732890000000000000000000000000000000000000000000000000000000081526004016116879190611ddb565b60405180910390fd5b81816040517f177e802f0000000000000000000000000000000000000000000000000000000081526004016116c69291906125e8565b60405180910390fd5b505050565b6116de8383611881565b6116f26116e9610b29565b5f8585856110e7565b505050565b60605f600161170584611974565b0190505f8167ffffffffffffffff81111561172357611722611dfc565b5b6040519080825280601f01601f1916602001820160405280156117555781602001600182028036833780820191505090505b5090505f82602083010190505b6001156117b6578080600190039150507f3031323334353637383961626364656600000000000000000000000000000000600a86061a8153600a85816117ab576117aa61260f565b5b0494505f8503611762575b819350505050919050565b5f8073ffffffffffffffffffffffffffffffffffffffff168373ffffffffffffffffffffffffffffffffffffffff161415801561187857508273ffffffffffffffffffffffffffffffffffffffff168473ffffffffffffffffffffffffffffffffffffffff16148061183957506118388484610877565b5b8061187757508273ffffffffffffffffffffffffffffffffffffffff1661185f83610af0565b73ffffffffffffffffffffffffffffffffffffffff16145b5b90509392505050565b5f73ffffffffffffffffffffffffffffffffffffffff168273ffffffffffffffffffffffffffffffffffffffff16036118f1575f6040517f64a0ae920000000000000000000000000000000000000000000000000000000081526004016118e89190611cd0565b60405180910390fd5b5f6118fd83835f610b42565b90505f73ffffffffffffffffffffffffffffffffffffffff168173ffffffffffffffffffffffffffffffffffffffff161461196f575f6040517f73c6ac6e0000000000000000000000000000000000000000000000000000000081526004016119669190611cd0565b60405180910390fd5b505050565b5f805f90507a184f03e93ff9f4daa797ed6e38ed64bf6a1f01000000000000000083106119d0577a184f03e93ff9f4daa797ed6e38ed64bf6a1f01000000000000000083816119c6576119c561260f565b5b0492506040810190505b6d04ee2d6d415b85acef81000000008310611a0d576d04ee2d6d415b85acef81000000008381611a0357611a0261260f565b5b0492506020810190505b662386f26fc100008310611a3c57662386f26fc100008381611a3257611a3161260f565b5b0492506010810190505b6305f5e1008310611a65576305f5e1008381611a5b57611a5a61260f565b5b0492506008810190505b6127108310611a8a576127108381611a8057611a7f61260f565b5b0492506004810190505b60648310611aad5760648381611aa357611aa261260f565b5b0492506002810190505b600a8310611abc576001810190505b80915050919050565b5f604051905090565b5f80fd5b5f80fd5b5f7fffffffff0000000000000000000000000000000000000000000000000000000082169050919050565b611b0a81611ad6565b8114611b14575f80fd5b50565b5f81359050611b2581611b01565b92915050565b5f60208284031215611b4057611b3f611ace565b5b5f611b4d84828501611b17565b91505092915050565b5f8115159050919050565b611b6a81611b56565b82525050565b5f602082019050611b835f830184611b61565b92915050565b5f81519050919050565b5f82825260208201905092915050565b5f5b83811015611bc0578082015181840152602081019050611ba5565b5f8484015250505050565b5f601f19601f8301169050919050565b5f611be582611b89565b611bef8185611b93565b9350611bff818560208601611ba3565b611c0881611bcb565b840191505092915050565b5f6020820190508181035f830152611c2b8184611bdb565b905092915050565b5f819050919050565b611c4581611c33565b8114611c4f575f80fd5b50565b5f81359050611c6081611c3c565b92915050565b5f60208284031215611c7b57611c7a611ace565b5b5f611c8884828501611c52565b91505092915050565b5f73ffffffffffffffffffffffffffffffffffffffff82169050919050565b5f611cba82611c91565b9050919050565b611cca81611cb0565b82525050565b5f602082019050611ce35f830184611cc1565b92915050565b611cf281611cb0565b8114611cfc575f80fd5b50565b5f81359050611d0d81611ce9565b92915050565b5f8060408385031215611d2957611d28611ace565b5b5f611d3685828601611cff565b9250506020611d4785828601611c52565b9150509250929050565b5f805f60608486031215611d6857611d67611ace565b5b5f611d7586828701611cff565b9350506020611d8686828701611cff565b9250506040611d9786828701611c52565b9150509250925092565b5f60208284031215611db657611db5611ace565b5b5f611dc384828501611cff565b91505092915050565b611dd581611c33565b82525050565b5f602082019050611dee5f830184611dcc565b92915050565b5f80fd5b5f80fd5b7f4e487b71000000000000000000000000000000000000000000000000000000005f52604160045260245ffd5b611e3282611bcb565b810181811067ffffffffffffffff82111715611e5157611e50611dfc565b5b80604052505050565b5f611e63611ac5565b9050611e6f8282611e29565b919050565b5f67ffffffffffffffff821115611e8e57611e8d611dfc565b5b611e9782611bcb565b9050602081019050919050565b828183375f83830152505050565b5f611ec4611ebf84611e74565b611e5a565b905082815260208101848484011115611ee057611edf611df8565b5b611eeb848285611ea4565b509392505050565b5f82601f830112611f0757611f06611df4565b5b8135611f17848260208601611eb2565b91505092915050565b5f8060408385031215611f3657611f35611ace565b5b5f611f4385828601611cff565b925050602083013567ffffffffffffffff811115611f6457611f63611ad2565b5b611f7085828601611ef3565b9150509250929050565b611f8381611b56565b8114611f8d575f80fd5b50565b5f81359050611f9e81611f7a565b92915050565b5f8060408385031215611fba57611fb9611ace565b5b5f611fc785828601611cff565b9250506020611fd885828601611f90565b9150509250929050565b5f67ffffffffffffffff821115611ffc57611ffb611dfc565b5b61200582611bcb565b9050602081019050919050565b5f61202461201f84611fe2565b611e5a565b9050828152602081018484840111156120405761203f611df8565b5b61204b848285611ea4565b509392505050565b5f82601f83011261206757612066611df4565b5b8135612077848260208601612012565b91505092915050565b5f805f806080858703121561209857612097611ace565b5b5f6120a587828801611cff565b94505060206120b687828801611cff565b93505060406120c787828801611c52565b925050606085013567ffffffffffffffff8111156120e8576120e7611ad2565b5b6120f487828801612053565b91505092959194509250565b5f806040838503121561211657612115611ace565b5b5f61212385828601611cff565b925050602061213485828601611cff565b9150509250929050565b7f4e487b71000000000000000000000000000000000000000000000000000000005f52602260045260245ffd5b5f600282049050600182168061218257607f821691505b6020821081036121955761219461213e565b5b50919050565b5f6060820190506121ae5f830186611cc1565b6121bb6020830185611dcc565b6121c86040830184611cc1565b949350505050565b7f4e487b71000000000000000000000000000000000000000000000000000000005f52601160045260245ffd5b5f61220782611c33565b91507fffffffffffffffffffffffffffffffffffffffffffffffffffffffffffffffff8203612239576122386121d0565b5b600182019050919050565b5f81905092915050565b5f61225882611b89565b6122628185612244565b9350612272818560208601611ba3565b80840191505092915050565b5f612289828561224e565b9150612295828461224e565b91508190509392505050565b5f819050815f5260205f209050919050565b5f6020601f8301049050919050565b5f82821b905092915050565b5f600883026122fd7fffffffffffffffffffffffffffffffffffffffffffffffffffffffffffffffff826122c2565b61230786836122c2565b95508019841693508086168417925050509392505050565b5f819050919050565b5f61234261233d61233884611c33565b61231f565b611c33565b9050919050565b5f819050919050565b61235b83612328565b61236f61236782612349565b8484546122ce565b825550505050565b5f90565b612383612377565b61238e818484612352565b505050565b5b818110156123b1576123a65f8261237b565b600181019050612394565b5050565b601f8211156123f6576123c7816122a1565b6123d0846122b3565b810160208510156123df578190505b6123f36123eb856122b3565b830182612393565b50505b505050565b5f82821c905092915050565b5f6124165f19846008026123fb565b1980831691505092915050565b5f61242e8383612407565b9150826002028217905092915050565b61244782611b89565b67ffffffffffffffff8111156124605761245f611dfc565b5b61246a825461216b565b6124758282856123b5565b5f60209050601f8311600181146124a6575f8415612494578287015190505b61249e8582612423565b865550612505565b601f1984166124b4866122a1565b5f5b828110156124db578489015182556001820191506020850194506020810190506124b6565b868310156124f857848901516124f4601f891682612407565b8355505b6001600288020188555050505b505050505050565b5f81519050919050565b5f82825260208201905092915050565b5f6125318261250d565b61253b8185612517565b935061254b818560208601611ba3565b61255481611bcb565b840191505092915050565b5f6080820190506125725f830187611cc1565b61257f6020830186611cc1565b61258c6040830185611dcc565b818103606083015261259e8184612527565b905095945050505050565b5f815190506125b781611b01565b92915050565b5f602082840312156125d2576125d1611ace565b5b5f6125df848285016125a9565b91505092915050565b5f6040820190506125fb5f830185611cc1565b6126086020830184611dcc565b9392505050565b7f4e487b71000000000000000000000000000000000000000000000000000000005f52601260045260245ffdfea2646970667358221220758b0a8694a885737fe5b34c903199a7fb2cd4d018ce3eb7f793539d9d619e1d64736f6c63430008180033",
  "linkReferences": {},
  "deployedLinkReferences": {},
  "immutableReferences": {},
  "inputSourceName": "project/contracts/DreamSoul.sol",
  "buildInfoId": "solc-0_8_24-b37e0cadfe14cbfc65c6fb84d546ddff7bc6ba7e"
}